0102020446EVIL MOG     D1AB011CA11CD00DAD0319
0102020446EVIL MOG     DEC1A551F1EDF11E010319
0102020446EVIL MOG     0FF1C1A1CAB1EF11E50319
0102020446EVIL MOG     50C1AB1E15ECCC20190319
0102020446EVIL MOG     000000000000111ADD0319
0102020446EVIL MOG     ADD1EACCE55EDA5C110319
0102020446EVIL MOG     DCFEEDB0B0DEADBEEF0319
0102020446EVIL MOG     C0FFEE1EADEDD1E5E10319
0102020446EVIL MOG     A5C11D1A1ACCE55BBS0319
0102020446EVIL MOG     A5C114EA5E0FACCE550319
0102020446EVIL MOG     10ADEDDAFF0D11F1F00319
0102020446EVIL MOG     E1FEC5AC07AB1EF11E0319
0102020446EVIL MOG     BA0BABD10DECAB005E0319
0102020446EVIL MOG     B3111AB5BA51CCABA10319
0102020446EVIL MOG     0B5E55ED0DDBA11CAD0319
0102020446EVIL MOG     5011D1F1ED50DAC0DA0319
0102020446EVIL MOG     C0D1F1EDBA5E16B10B0319
0102020446EVIL MOG     C0DED15C105ED10CA10319
0102020446EVIL MOG     F0551115ED5C51D15C0319
0102020446EVIL MOG     1CEFA11F1E1D0FF1CE0319
0102020446EVIL MOG     1005E1EAFD15BE11EF0319
0102020446EVIL MOG     0551F1EDF1DD1EBACC0319
0102020446EVIL MOG     F100DED0A5155EA1ED0319
0102020446EVIL MOG     5AFE11FE512E501ACE0319
0102020446EVIL MOG     DEC0DE5EEDEDFACADE0319
0102020446EVIL MOG     FA151F1AB1E4A111E50319
